:100000001EC039C063C036C035C034C033C032C032
:1000100031C030C02FC02EC02DC02CC02BC02AC074
:1000200029C028C027C026C025C0AFC0B0C0B1C0FD
:10003000B2C0B3C0B4C0B5C0B6C0B7C0B8C0112458
:100040001FBECFE5D1E0DEBFCDBF10E0A0E6B0E03F
:10005000E8E1F2E002C005900D92A036B107D9F7B1
:1000600010E0A0E6B0E001C01D92A536B107E1F7AF
:1000700058D0D0C0C5CF1F920F920FB60F92112447
:100080002F933F938F939F93EF93FF9380916400FF
:10009000882389F481E08093640084EF91E02CE967
:1000A00031E0F9013197F1F70197D9F7109260002B
:1000B00081E080936200FF91EF919F918F913F913A
:1000C0002F910F900FBE0F901F9018951F920F92B7
:1000D0000FB60F9211242F933F938F939F93EF931B
:1000E000FF9380916400882389F481E08093640009
:1000F00084EF91E02CE931E0F9013197F1F70197B4
:10010000D9F71092610081E080936300FF91EF9135
:100110009F918F913F912F910F900FBE0F901F9045
:100120001895CF92DF92EF92FF920F931F938FEF6C
:1001300087BB11BA82B38C6082BB8BB7806C8BBFDC
:1001400085B78A6085BF78946CE971E04FE33FE63C
:10015000C32E2FE7D22E97E0E92E8DE7F82E0DE67D
:1001600016E6BFE4ABE556E0809164008823E1F336
:100170009091610080916000892BE82FF0E0EA30D7
:10018000F105B0F4EB5EFF4F099448BB11C058BBBA
:100190000FC0A8BB0DC0B8BB0BC018BB09C008BBC3
:1001A00007C0F8BA05C0E8BA03C0D8BA01C0C8BAD7
:1001B00080916200882371F080916000883030F473
:1001C000809160008F5F8093600011C048BB1092E7
:1001D000600013C080916300882391F080916100DA
:1001E000873040F4809161008F5F8093610020E14F
:1001F00037E208C048BB1092610010926400F7CF4C
:1002000048BBF5CFCB010197F1F72150304009F4FD
:08021000ABCFF8CFF894FFCF4B
:00000001FF
