:100000000C944D010C9475010C9475010C947501C0
:100010000C9475010C9475010C9475010C94750188
:100020000C9475010C9475010C9475010C94750178
:100030000C9475010C9475010C9475010C94750168
:100040000C9471040C9475010C9475010C94750159
:100050000C9475010C9475010C9475010C94750148
:100060000C9475010C947501000000000000005F05
:1000700000000007000700147F147F14242A7F2A41
:10008000122313086462364955225000050300000C
:10009000001C2241000041221C0014083E081408E4
:1000A000083E0808005030000008080808080060F2
:1000B00060000020100804023E5149453E00427F86
:1000C000400042615149462141454B311814127F8D
:1000D0001027454545393C4A494930017109050316
:1000E0003649494936064949291E0036360000007E
:1000F0005636000008142241001414141414004150
:100100002214080201510906324979413E7E11113B
:10011000117E7F494949363E414141227F4141227A
:100120001C7F494949417F090909013E4149497AF2
:100130007F0808087F00417F41002040413F017F48
:10014000081422417F404040407F020C027F7F0420
:1001500008107F3E4141413E7F090909063E415159
:10016000215E7F09192946464949493101017F012C
:10017000013F4040403F1F2040201F3F4038403F4C
:100180006314081463070870080761514945430068
:100190007F41410002040810200041417F00040219
:1001A0000102044040404040000102040020545439
:1001B00054787F48444438384444442038444448C0
:1001C0007F3854545418087E0901020C5252523E92
:1001D0007F0804047800447D40002040443D007FB7
:1001E0001028440000417F40007C041804787C08FB
:1001F00004047838444444387C1414140808141453
:10020000187C7C080404084854545420043F44409B
:10021000203C4040207C1C2040201C3C4030403C86
:1002200044281028440C5050503C4464544C440022
:100230000836410000007F00000041360800100829
:100240000810080000000000000000080002010083
:100250000003040700000000000000000000000090
:10026000250028002B0000000000240027002A00A1
:10027000040404040404040402020202020203034C
:100280000303030301020408102040800102040854
:100290001020010204081020520611241FBECFEFC7
:1002A000D8E0DEBFCDBF11E0A0E0B1E0E8EFF1E1C2
:1002B00002C005900D92A833B107D9F721E0A8E359
:1002C000B1E001C01D92AF38B207E1F711E0CDE413
:1002D000D1E004C02197FE010E94F408CC34D1077C
:1002E000C9F70E94BB040C94FA080C94000090E03B
:1002F000FC01EC57FD4F249180599D4FFC018491E6
:10030000882399F090E0880F991FFC01EA59FD4F6E
:10031000A591B491FC01E45AFD4F859194918FB75A
:10032000F894EC91E22BEC938FBF0895AF92BF92BB
:10033000CF92DF92EF92FF920F931F93CF93DF93B1
:100340006C017B018B01040F151FEB015E01AE18E0
:10035000BF08C017D10759F06991D601ED91FC9102
:100360000190F081E02DC6010995892B79F7C5012F
:10037000DF91CF911F910F91FF90EF90DF90CF9081
:10038000BF90AF90089590E0FC01E85BFD4F249191
:10039000FC01EC57FD4F3491FC01E059FD4FE49115
:1003A000EE23C9F0222339F0233001F1A8F42130E3
:1003B00019F1223029F1F0E0EE0FFF1FE45AFD4F52
:1003C000A591B4918FB7F894EC91611126C0309546
:1003D0003E233C938FBF08952730A9F02830C9F001
:1003E000243049F7809180008F7D03C08091800088
:1003F0008F7780938000DFCF84B58F7784BDDBCF8C
:1004000084B58F7DFBCF8091B0008F778093B00053
:10041000D2CF8091B0008F7DF9CF3E2BDACF8E50B6
:10042000806480937C0080917A00806480937A005D
:1004300080917A0086FDFCCF8091780090917900C0
:1004400008953FB7F89480913D0190913E01A091AD
:100450003F01B091400126B5A89B05C02F3F19F080
:100460000196A11DB11D3FBFBA2FA92F982F882734
:10047000BC01CD01620F711D811D911D42E0660F0F
:10048000771F881F991F4A95D1F708958F929F92E1
:10049000AF92BF92CF92DF92EF92FF920E94210221
:1004A0004B015C0184E6C82ED12CE12CF12C0E947A
:1004B0002102681979098A099B09683E7340810500
:1004C0009105A8F321E0C21AD108E108F10888EEED
:1004D000880E83E0981EA11CB11CC114D104E10454
:1004E000F10429F7FF90EF90DF90CF90BF90AF908D
:1004F0009F908F900895089590E080E00895FC010A
:1005000001900020E9F73197AF01481B590BBC015E
:1005100081E491E00C9496018F929F92AF92BF92EA
:100520000F931F93CF93DF93CDB7DEB7A1970FB68D
:10053000F894DEBF0FBECDBF19A2423008F44AE0E6
:100540008E010F5D1F4F842E912CB12CA12CA50183
:1005500094010E94BE08E62FB901CA01EA30F4F402
:10056000E05DD801EE938D01232B242B252B79F709
:1005700090E080E0109719F0CD010E947F02A196D3
:100580000FB6F894DEBF0FBECDBFDF91CF911F91A4
:100590000F91BF90AF909F908F900895E95CE1CF4D
:1005A000EF92FF920F931F93CF93DF93EC01042FF1
:1005B0008E810E94C30160E088850E94C301FC8097
:1005C000ED8018E0602F661F6627661F8E2D0E9443
:1005D000C301000F61E08F2D0E94C30160E08F2DE9
:1005E0000E94C301115071F761E08885DF91CF91BE
:1005F0001F910F91FF90EF900C94C301CF93DF9365
:10060000C1E4D1E01C8690E06B8529E3629F612DF7
:100610001124669570E06F5F7F4F0E94AA088D8756
:1006200040E860E0CE010E94D0024D85406460E069
:10063000CE01DF91CF910C94D002CF92DF92EF9256
:10064000FF920F931F93CF93DF9300D000D01F92A0
:10065000CDB7DEB767FD66C07C01862F90E06032C3
:1006600008F44FC0809725E0289FB001299F700DA6
:10067000112468597F4F45E050E0CE0101960E9459
:1006800065068E010F5F1F4F680185E0C80ED11C03
:10069000F80141918F0161E0C7010E94D0020C1561
:1006A0001D05B1F740E061E0C7010E94D002F701EB
:1006B000848590E00696628570E00E94AA0884878F
:1006C000892B79F4858590E00196638529E3629F03
:1006D000612D1124669570E06F5F7F4F0E94AA081C
:1006E000858781E090E00F900F900F900F900F9012
:1006F000DF91CF911F910F91FF90EF90DF90CF90FE
:100700000895FC013796EE0FFF1FEE0DFF1D0081CF
:1007100011810115110509F0B7CF45E050E068E6F9
:1007200070E0ABCF90E080E0DECF4F925F926F92AF
:100730007F928F929F92AF92BF92CF92DF92EF9271
:10074000FF920F931F93CF936B017C01742EAC012A
:100750009B010E94A508882399F081E191E0CF9147
:100760001F910F91FF90EF90DF90CF90BF90AF90CF
:100770009F908F907F906F905F904F900C947F022E
:1007800046015701E894B7F82FEF3FEF4FE75FE7D7
:10079000C501B4010E94A50881110DC02FEF3FEFE4
:1007A0004FE75FE7C501B4010E94DB0618161CF491
:1007B00085E191E0D4CF2FEF3FEF4FE75FE4C70132
:1007C000B6010E94330818161CF489E191E0C7CFE6
:1007D0002FEF3FEF4FE75FECC701B6010E94DB064A
:1007E00087FDF3CF20E030E0A901C701B6010E94E8
:1007F000DB0610E000E087FF0AC06DE281E491E0D3
:100800000E941D038C01F7FAF094F7F8F094C0E011
:1008100060E070E080E09FE37C1641F020E030E093
:1008200040E251E40E94E006CF5FF6CFA7019601B7
:100830000E946F062B013C010E9452074B015C0194
:100840004AE00E948C027C01E00EF11ECC23C1F133
:10085000C501B4010E9481079B01AC01C301B20133
:100860000E946E064B015C016EE281E491E00E9401
:100870001D03E80EF91EC15018F120E030E040E2FF
:1008800051E4C501B4010E9438082B013C010E94CB
:1008900052074B01B12CA12C4AE0C501B4010E94C2
:1008A0008C02E80EF91EC501B4010E9481079B016C
:1008B000AC01C301B2010E946E064B015C01DBCFAB
:1008C000C701CF911F910F91FF90EF90DF90CF90D4
:1008D000BF90AF909F908F907F906F905F904F9060
:1008E00008951F920F920FB60F9211242F933F93EA
:1008F0008F939F93AF93BF938091390190913A0169
:10090000A0913B01B0913C013091380123E0230FCD
:100910002D3758F50196A11DB11D20933801809304
:10092000390190933A01A0933B01B0933C0180912F
:100930003D0190913E01A0913F01B091400101968F
:10094000A11DB11D80933D0190933E01A0933F01F5
:10095000B0934001BF91AF919F918F913F912F91A3
:100960000F900FBE0F901F90189526E8230F029648
:10097000A11DB11DD2CF789484B5826084BD84B5A9
:10098000816084BD85B5826085BD85B5816085BD8A
:1009900080916E00816080936E0010928100809142
:1009A00081008260809381008091810081608093CA
:1009B0008100809180008160809380008091B100EF
:1009C00084608093B1008091B00081608093B0001A
:1009D00080917A00846080937A0080917A008260AE
:1009E00080937A0080917A00816080937A00809170
:1009F0007A00806880937A001092C10084E5809329
:100A00004B0180E380934C0110924A0110924D01FA
:100A100010924E01EFE4F1E080E4DF011D928A952F
:100A2000E9F7809145010E947701809146010E947B
:100A30007701809147010E947701809148010E94CF
:100A40007701809149010E94770161E0809148011E
:100A50000E94C30161E0809149010E94C30160E0EE
:100A6000809148010E94C3010E94460261E080918A
:100A700048010E94C30141E260E081E491E00E94EC
:100A8000D00243E160E081E491E00E94D0028091D5
:100A90004A0142EC813039F440EE60E081E491E0BB
:100AA0000E94D00245E060E081E491E00E94D00223
:100AB00040E260E081E491E00E94D00249E060E021
:100AC00081E491E00E94D00280E00E94FE02D0E02A
:100AD000C0E080914C0186958695869590914B015A
:100AE000899FC0011124C817D90740F440E061E094
:100AF00081E491E00E94D0022196EBCF80E00E9439
:100B0000FE0248E060E081E491E00E94D0024CE007
:100B100060E081E491E00E94D0020E94460240E839
:100B200060E081E491E00E94D00240E460E081E472
:100B300091E00E94D0028CE091E09093500180936C
:100B40004F0100E010E08EE00E940F025C018FE098
:100B50000E940F026C0180E10E940F027C0181E182
:100B60000E940F02EC0180E00E94FE028DE191E004
:100B70000E947F02B501BB0C880B990B0E94830772
:100B800020E030E040EA50E40E94380820E030ECF9
:100B90004FE754E40E94E0062CE83EE24AEB5DE3B6
:100BA0000E94E00642E00E94950383E291E00E94E9
:100BB0007F0281E00E94FE0285E291E00E947F02B6
:100BC000B601DD0C880B990B0E94830720E030E012
:100BD00040EA50E40E94380820E030EC4FE754E44B
:100BE0000E94E0062CE83EE24AEB5DE30E94E0064C
:100BF00042E00E94950383E291E00E947F0282E03E
:100C00000E94FE028BE291E00E947F02B701FF0C7E
:100C1000880B990B0E94830720E030E040EA50E403
:100C20000E94380820E030EC4FE754E40E94E006D0
:100C30002CE83EE24AEB5DE30E94E00642E00E94BF
:100C4000950383E291E00E947F0283E00E94FE020E
:100C500081E391E00E947F02BE01DD0F880B990BBA
:100C60000E94830720E030E040EA50E40E94380808
:100C700020E030EC4FE754E40E94E0062CE83EE22E
:100C80004AEB5DE30E94E00642E00E94950383E2A6
:100C900091E00E947F020115110509F454CF0E94D2
:100CA000000051CFE1E4F1E01382128284E091E090
:100CB0009183808383E0848384E0858385E08683D9
:100CC00086E0878387E080870895FB01DC0102C00E
:100CD00005900D9241505040D8F708955058BB27C9
:100CE000AA270E9486060C94F9070E94EB0738F0A9
:100CF0000E94F20720F039F49F3F19F426F40C9477
:100D0000E8070EF4E095E7FB0C94E207E92F0E9458
:100D10000A0858F3BA17620773078407950720F08B
:100D200079F4A6F50C942C080EF4E0950B2EBA2F4E
:100D3000A02D0B01B90190010C01CA01A0011124E1
:100D4000FF27591B99F0593F50F4503E68F11A168D
:100D5000F040A22F232F342F4427585FF3CF46951E
:100D600037952795A795F0405395C9F77EF41F1640
:100D7000BA0B620B730B840BBAF09150A1F0FF0F0A
:100D8000BB1F661F771F881FC2F70EC0BA0F621FF6
:100D9000731F841F48F4879577956795B795F795E6
:100DA0009E3F08F0B0CF9395880F08F09927EE0F7B
:100DB0009795879508950E94BE0708F481E00895ED
:100DC0000E94F4060C94F9070E94F20758F00E9462
:100DD000EB0740F029F45F3F29F00C94E207511132
:100DE0000C942D080C94E8070E940A0868F39923D4
:100DF000B1F3552391F3951B550BBB27AA27621717
:100E00007307840738F09F5F5F4F220F331F441F23
:100E1000AA1FA9F335D00E2E3AF0E0E832D0915057
:100E20005040E695001CCAF72BD0FE2F29D0660F44
:100E3000771F881FBB1F261737074807AB07B0E887
:100E400009F0BB0B802DBF01FF2793585F4F3AF08D
:100E50009E3F510578F00C94E2070C942D085F3FFB
:100E6000E4F3983ED4F3869577956795B795F79513
:100E70009F5FC9F7880F911D9695879597F90895FB
:100E8000E1E0660F771F881FBB1F62177307840797
:100E9000BA0720F0621B730B840BBA0BEE1F88F7A6
:100EA000E09508950E94120888F09F5798F0B92F96
:100EB0009927B751B0F0E1F0660F771F881F991F8F
:100EC0001AF0BA95C9F714C0B13091F00E942C08FD
:100ED000B1E008950C942C08672F782F8827B85F0D
:100EE00039F0B93FCCF3869577956795B395D9F7E7
:100EF0003EF490958095709561957F4F8F4F9F4FF1
:100F00000895E89409C097FB3EF4909580957095FC
:100F100061957F4F8F4F9F4F9923A9F0F92F96E945
:100F2000BB279395F695879577956795B795F111BA
:100F3000F8CFFAF4BB0F11F460FF1BC06F5F7F4F57
:100F40008F4F9F4F16C0882311F096E911C0772369
:100F500021F09EE8872F762F05C0662371F096E872
:100F6000862F70E060E02AF09A95660F771F881F41
:100F7000DAF7880F9695879597F90895990F0008E5
:100F8000550FAA0BE0E8FEEF16161706E807F9075B
:100F9000C0F012161306E407F50798F0621B730BF6
:100FA000840B950B39F40A2661F0232B242B252B77
:100FB00021F408950A2609F4A140A6958FEF811D1A
:100FC000811D089597F99F6780E870E060E00895BB
:100FD0009FEF80EC089500240A9416161706180651
:100FE0000906089500240A9412161306140605062D
:100FF0000895092E0394000C11F4882352F0BB0FBE
:1010000040F4BF2B11F460FF04C06F5F7F4F8F4F20
:101010009F4F089557FD9058440F551F59F05F3F5B
:1010200071F04795880F97FB991F61F09F3F79F00A
:1010300087950895121613061406551FF2CF46958C
:10104000F1DF08C0161617061806991FF1CF86950E
:101050007105610508940895E894BB2766277727F2
:10106000CB0197F908950E94BE0708F48FEF089509
:101070000E944B080C94F9070E94EB0738F00E947D
:10108000F20720F0952311F00C94E2070C94E80786
:1010900011240C942D080E940A0870F3959FC1F347
:1010A000950F50E0551F629FF001729FBB27F00D16
:1010B000B11D639FAA27F00DB11DAA1F649F66276B
:1010C000B00DA11D661F829F2227B00DA11D621FBA
:1010D000739FB00DA11D621F839FA00D611D221F74
:1010E000749F3327A00D611D231F849F600D211D58
:1010F000822F762F6A2F11249F5750409AF0F1F0DB
:1011000088234AF0EE0FFF1FBB1F661F771F881F43
:1011100091505040A9F79E3F510580F00C94E20792
:101120000C942D085F3FE4F3983ED4F386957795B1
:101130006795B795F795E7959F5FC1F7FE2B880FE9
:10114000911D9695879597F908950E94BE07880B83
:10115000990B089597FB072E16F4009407D077FD9E
:1011600009D00E94E00807FC05D03EF490958195D7
:101170009F4F0895709561957F4F0895A1E21A2EB3
:10118000AA1BBB1BFD010DC0AA1FBB1FEE1FFF1F2B
:10119000A217B307E407F50720F0A21BB30BE40B7B
:1011A000F50B661F771F881F991F1A9469F76095C2
:1011B0007095809590959B01AC01BD01CF0108957C
:1011C000AA1BBB1B51E107C0AA1FBB1FA617B7076D
:1011D00010F0A61BB70B881F991F5A95A9F7809589
:1011E0009095BC01CD010895EE0FFF1F0590F4917D
:0811F000E02D0994F894FFCFF3
:1011F800000000001D0396017C027B02103430348D
:10120800106E616E00696E66006F7666005620315A
:101218003A200056005620323A20005620333A2011
:08122800005620343A200000BA
:00000001FF
