:100000000C944D010C9475010C9475010C947501C0
:100010000C9475010C9475010C9475010C94750188
:100020000C9475010C9475010C9475010C94750178
:100030000C9475010C9475010C9475010C94750168
:100040000C94C1040C9475010C948F040C946904F5
:100050000C9475010C9475010C9475010C94750148
:100060000C9475010C947501000000000000005F05
:1000700000000007000700147F147F14242A7F2A41
:10008000122313086462364955225000050300000C
:10009000001C2241000041221C0014083E081408E4
:1000A000083E0808005030000008080808080060F2
:1000B00060000020100804023E5149453E00427F86
:1000C000400042615149462141454B311814127F8D
:1000D0001027454545393C4A494930017109050316
:1000E0003649494936064949291E0036360000007E
:1000F0005636000008142241001414141414004150
:100100002214080201510906324979413E7E11113B
:10011000117E7F494949363E414141227F4141227A
:100120001C7F494949417F090909013E4149497AF2
:100130007F0808087F00417F41002040413F017F48
:10014000081422417F404040407F020C027F7F0420
:1001500008107F3E4141413E7F090909063E415159
:10016000215E7F09192946464949493101017F012C
:10017000013F4040403F1F2040201F3F4038403F4C
:100180006314081463070870080761514945430068
:100190007F41410002040810200041417F00040219
:1001A0000102044040404040000102040020545439
:1001B00054787F48444438384444442038444448C0
:1001C0007F3854545418087E0901020C5252523E92
:1001D0007F0804047800447D40002040443D007FB7
:1001E0001028440000417F40007C041804787C08FB
:1001F00004047838444444387C1414140808141453
:10020000187C7C080404084854545420043F44409B
:10021000203C4040207C1C2040201C3C4030403C86
:1002200044281028440C5050503C4464544C440022
:100230000836410000007F00000041360800100829
:100240000810080000000000000000002400270043
:100250002A0000000000250028002B0004040404EC
:100260000404040402020202020203030303030360
:10027000010204081020408001020408102001023D
:100280000408102000000008000201000003040719
:1002900000000000000000000B0511241FBECFEF7E
:1002A000D8E0DEBFCDBF11E0A0E0B1E0ECECF3E1BF
:1002B00002C005900D92A633B107D9F722E0A6E35C
:1002C000B1E001C01D92AA32B207E1F711E0CDE41E
:1002D000D1E004C02197FE010E94DE09CC34D10791
:1002E000C9F70E944A050C94E4090C940000AF92EF
:1002F000BF92CF92DF92EF92FF920F931F93CF9313
:10030000DF936C017B018B01040F151FEB015E0174
:10031000AE18BF08C017D10759F06991D601ED9109
:10032000FC910190F081E02DC6010995892B79F7A8
:10033000C501DF91CF911F910F91FF90EF90DF905A
:10034000CF90BF90AF900895FC01538D448D252F21
:1003500030E0842F90E0821B930B541710F0CF965F
:10036000089501970895FC01918D828D981761F091
:10037000A28DAE0FBF2FB11D5D968C91928D9F5FA8
:100380009F73928F90E008958FEF9FEF0895FC0187
:10039000918D828D981731F0828DE80FF11D858D3A
:1003A00090E008958FEF9FEF0895FC01918D228DCD
:1003B000892F90E0805C9F4F821B91098F73992752
:1003C00008958FE391E00E94D50121E0892B09F483
:1003D00020E0822F089580E090E0892B29F00E9490
:1003E000E10181110C9400000895FC01A48DA80F77
:1003F000B92FB11DA35ABF4F2C91848D90E0019667
:100400008F739927848FA689B7892C93A089B18986
:100410008C91837080648C93938D848D981306C027
:100420000288F389E02D80818F7D80830895EF928B
:10043000FF920F931F93CF93DF93EC0181E0888F9E
:100440009B8D8C8D98131AC0E889F989808185FF6E
:1004500015C09FB7F894EE89FF896083E889F98910
:1004600080818370806480839FBF81E090E0DF9112
:10047000CF911F910F91FF90EF900895F62E0B8D65
:1004800010E00F5F1F4F0F731127E02E8C8D8E1120
:100490000CC00FB607FCFACFE889F989808185FF87
:1004A000F5CFCE010E94F501F1CFEB8DEC0FFD2FC2
:1004B000F11DE35AFF4FF0829FB7F8940B8FEA8942
:1004C000FB8980818062CFCFCF93DF93EC01888D51
:1004D0008823B9F0AA89BB89E889F9898C9185FDBF
:1004E00003C0808186FD0DC00FB607FCF7CF8C914D
:1004F00085FFF2CF808185FFEDCFCE010E94F5010F
:10050000E9CFDF91CF91089590E0FC01EC57FD4FCA
:100510002491FC01E059FD4F3491FC01E45AFD4F58
:10052000E491EE23C9F0222339F0233001F1A8F43D
:10053000213019F1223029F1F0E0EE0FFF1FEE5AC1
:10054000FD4FA591B4918FB7F894EC91611126C03D
:1005500030953E233C938FBF08952730A9F0283073
:10056000C9F0243049F7809180008F7D03C08091CD
:1005700080008F7780938000DFCF84B58F7784BD34
:10058000DBCF84B58F7DFBCF8091B0008F778093D8
:10059000B000D2CF8091B0008F7DF9CF3E2BDACF63
:1005A000CF93DF9390E0FC01E059FD4F2491845AF2
:1005B0009D4FFC0184918823D1F090E0880F991F12
:1005C000FC01E85BFD4FA591B491FC01EE5AFD4F93
:1005D000C591D49161110EC09FB7F8948C91E22F10
:1005E000E0958E238C932881E223E8839FBFDF91DF
:1005F000CF9108958FB7F894EC91E22BEC938FBFD5
:10060000F6CF3FB7F89480913B0190913C01A091C7
:100610003D01B0913E0126B5A89B05C02F3F19F0C2
:100620000196A11DB11D3FBFBA2FA92F982F882772
:10063000BC01CD01620F711D811D911D42E0660F4D
:10064000771F881F991F4A95D1F708958F929F921F
:10065000AF92BF92CF92DF92EF92FF920E9401037E
:100660004B015C0184E6C82ED12CE12CF12C0E94B8
:100670000103681979098A099B09683E734081055D
:100680009105A8F321E0C21AD108E108F10888EE2B
:10069000880E83E0981EA11CB11CC114D104E10492
:1006A000F10429F7FF90EF90DF90CF90BF90AF90CB
:1006B0009F908F900895089590E080E00895FC0148
:1006C00001900020E9F73197AF01481B590BBC019D
:1006D0008CED91E00C9477018F929F92AF92BF9234
:1006E0000F931F93CF93DF93CDB7DEB7A1970FB6CC
:1006F000F894DEBF0FBECDBF19A2423008F44AE025
:100700008E010F5D1F4F842E912CB12CA12CA501C1
:1007100094010E94A809E62FB901CA01EA30F4F455
:10072000E05DD801EE938D01232B242B252B79F747
:1007300090E080E0109719F0CD010E945F03A19630
:100740000FB6F894DEBF0FBECDBFDF91CF911F91E2
:100750000F91BF90AF909F908F900895E95CE1CF8B
:10076000EF92FF920F931F93CF93DF93EC01042F2F
:100770008E810E94840260E088850E948402FC8051
:10078000ED8018E0602F661F6627661F8E2D0E9481
:100790008402000F61E08F2D0E94840260E08F2DA3
:1007A0000E948402115071F761E08885DF91CF913A
:1007B0001F910F91FF90EF900C948402CF93DF93E1
:1007C000CCEDD1E01C861D8640E860E0CE010E94A1
:1007D000B0034D85406460E0CE01DF91CF910C9471
:1007E000B003CF92DF92EF92FF920F931F93CF93BC
:1007F000DF9300D000D01F92CDB7DEB767FD66C093
:100800007C01862F90E0603208F44FC0809725E08D
:10081000289FB001299F700D112468597F4F45E032
:1008200050E0CE0101960E944F078E010F5F1F4FCF
:10083000680185E0C80ED11CF80141918F0161E08B
:10084000C7010E94B0030C151D05B1F740E061E03F
:10085000C7010E94B003F701848590E00696628587
:1008600070E00E9494098487892B79F4858590E053
:100870000196638529E3629F612D1124669570E0DE
:100880006F5F7F4F0E949409858781E090E00F9011
:100890000F900F900F900F90DF91CF911F910F91BC
:1008A000FF90EF90DF90CF900895FC013796EE0F08
:1008B000FF1FEE0DFF1D008111810115110509F0CB
:1008C000B7CF45E050E068E670E0ABCF90E080E065
:1008D000DECF1F920F920FB60F9211242F933F93EA
:1008E0004F935F936F937F938F939F93AF93BF9338
:1008F000EF93FF938FE391E00E94F501FF91EF9159
:10090000BF91AF919F918F917F916F915F914F9127
:100910003F912F910F900FBE0F901F9018951F922F
:100920000F920FB60F9211242F938F939F93EF93F3
:10093000FF93E0914F01F09150018081E0915501CA
:10094000F091560182FD1BC09081809158018F5F0C
:100950008F7320915901821741F0E0915801F0E026
:10096000E15CFE4F958F80935801FF91EF919F912D
:100970008F912F910F900FBE0F901F90189580812F
:10098000F4CF1F920F920FB60F9211242F933F9323
:100990008F939F93AF93BF938091370190913801CC
:1009A000A0913901B0913A013091360123E0230F33
:1009B0002D3758F50196A11DB11D20933601809366
:1009C000370190933801A0933901B0933A01809197
:1009D0003B0190913C01A0913D01B0913E010196F7
:1009E000A11DB11D80933B0190933C01A0933D015B
:1009F000B0933E01BF91AF919F918F913F912F9105
:100A00000F900FBE0F901F90189526E8230F0296A7
:100A1000A11DB11DD2CFEFE3F1E01382128288EE67
:100A200093E0A0E0B0E084839583A683B78389E058
:100A300091E09183808385EC90E09587848784ECB6
:100A400090E09787868780EC90E0918B808B81EC9B
:100A500090E0938B828B82EC90E0958B848B86EC7C
:100A600090E0978B868B118E128E138E148EECED88
:100A7000F1E0138212828BE191E09183808383E025
:100A8000848384E0858385E0868386E0878387E0AE
:100A900080870895789484B5826084BD84B5816030
:100AA00084BD85B5826085BD85B5816085BD809139
:100AB0006E00816080936E001092810080918100B1
:100AC00082608093810080918100816080938100A9
:100AD000809180008160809380008091B10084606B
:100AE0008093B1008091B00081608093B0008091CC
:100AF0007A00846080937A0080917A00826080938B
:100B00007A0080917A00816080937A0080917A00E7
:100B1000806880937A001092C100E0914F01F091BB
:100B2000500182E08083E0914B01F0914C011082F2
:100B3000E0914D01F0914E018FEC808310925701AE
:100B4000E0915301F091540186E08083E0915101DE
:100B5000F0915201808180618083E0915101F09198
:100B60005201808188608083E0915101F0915201AF
:100B7000808180688083E0915101F09152018081F1
:100B80008F7D808360E08EE00E94D00284E58093B8
:100B9000E60180E38093E7011092E5011092E801FD
:100BA0001092E901EAEEF1E080E4DF011D928A95FE
:100BB000E9F761E08091E0010E94D00261E080915C
:100BC000E1010E94D00261E08091E2010E94D00226
:100BD00061E08091E3010E94D00261E08091E40134
:100BE0000E94D00261E08091E3010E94840261E0F2
:100BF0008091E4010E94840260E08091E3010E9400
:100C000084020E94260361E08091E3010E94840235
:100C100041E260E08CED91E00E94B00343E160E0CE
:100C20008CED91E00E94B0038091E50142EC8130AF
:100C300039F440EE60E08CED91E00E94B00345E0B5
:100C400060E08CED91E00E94B00340E260E08CED4A
:100C500091E00E94B00349E060E08CED91E00E94D9
:100C6000B0030E94DE03D0E0C0E08091E7018695EA
:100C7000869586959091E601899FC0011124C81739
:100C8000D90740F440E061E08CED91E00E94B003B0
:100C90002196EBCF0E94DE0348E060E08CED91E00E
:100CA0000E94B0034CE060E08CED91E00E94B00344
:100CB0000E94260340E860E08CED91E00E94B003C2
:100CC00040E460E08CED91E00E94B00380E091E0B0
:100CD0009093EB018093EA0110E4C0E0D0E0109320
:100CE0007C0080917A00806480937A0080917A0001
:100CF00086FDFCCF8091780060917900762F682F77
:100D0000072E000C880B990B0E946D089B01AC010B
:100D100060E070E88FEF93E40E94580720E030E035
:100D200044E452E40E94220920E030EC4FE754E40E
:100D30000E94CA076B017C014B015C010E94DE032B
:100D400083E291E00E945F03A7019601C701B6010B
:100D50000E948F09882379F089E291E00E945F0365
:100D6000209709F4BCCF0E94E101882309F4B7CF92
:100D70000E940000B4CF26013701E89477F82FEFE6
:100D80003FEF4FE75FE7C301B2010E948F09811176
:100D90000DC02FEF3FEF4FE75FE7C301B2010E94A5
:100DA000C50718161CF48DE291E0D8CF2FEF3FEF66
:100DB0004FE75FE4C701B6010E941D0918161CF435
:100DC00081E391E0CBCF2FEF3FEF4FE75FECC7011F
:100DD000B6010E94C50787FDF3CF20E030E0A901EE
:100DE000C701B6010E94C50787FF0BC06DE28CEDFD
:100DF00091E00E94F10346015701B7FAB094B7F8A9
:100E0000B0942AE037ED43EA5BE3C501B4010E94E8
:100E100059074B015C010E943C086B017C010E9458
:100E20006B089B01AC01C501B4010E9458074B013E
:100E30005C014AE0C701B6010E946C036EE28CEDD2
:100E400091E00E94F10320E030E040E251E4C5016E
:100E5000B4010E9422094B015C010E943C086B0115
:100E6000F12CE12C4AE0C701B6010E946C03C701D6
:100E7000B6010E946B089B01AC01C501B4010E9440
:100E8000580720E030E040E251E40E9422090E942D
:100E90003C0890E080E04AE00E946C0361CFFB01D7
:100EA000DC0102C005900D9241505040D8F70895E2
:100EB0005058BB27AA270E9470070C94E3080E9491
:100EC000D50838F00E94DC0820F039F49F3F19F46F
:100ED00026F40C94D2080EF4E095E7FB0C94CC08B1
:100EE000E92F0E94F40858F3BA17620773078407C2
:100EF000950720F079F4A6F50C9416090EF4E09508
:100F00000B2EBA2FA02D0B01B90190010C01CA01C3
:100F1000A0011124FF27591B99F0593F50F4503E6E
:100F200068F11A16F040A22F232F342F4427585F60
:100F3000F3CF469537952795A795F0405395C9F778
:100F40007EF41F16BA0B620B730B840BBAF0915030
:100F5000A1F0FF0FBB1F661F771F881FC2F70EC0CF
:100F6000BA0F621F731F841F48F4879577956795A2
:100F7000B795F7959E3F08F0B0CF9395880F08F08E
:100F80009927EE0F9795879508950E94A80808F471
:100F900081E008950E94DE070C94E3080E94DC08BB
:100FA00058F00E94D50840F029F45F3F29F00C94D6
:100FB000CC0851110C9417090C94D2080E94F40823
:100FC00068F39923B1F3552391F3951B550BBB2778
:100FD000AA2762177307840738F09F5F5F4F220FBD
:100FE000331F441FAA1FA9F335D00E2E3AF0E0E8B4
:100FF00032D091505040E695001CCAF72BD0FE2FFE
:1010000029D0660F771F881FBB1F26173707480791
:10101000AB07B0E809F0BB0B802DBF01FF27935849
:101020005F4F3AF09E3F510578F00C94CC080C9439
:1010300017095F3FE4F3983ED4F38695779567955B
:10104000B795F7959F5FC9F7880F911D969587957E
:1010500097F90895E1E0660F771F881FBB1F62179D
:1010600073078407BA0720F0621B730B840BBA0B5B
:10107000EE1F88F7E09508950E94FC0888F09F57BE
:1010800098F0B92F9927B751B0F0E1F0660F771FAC
:10109000881F991F1AF0BA95C9F714C0B13091F0A2
:1010A0000E941609B1E008950C941609672F782F55
:1010B0008827B85F39F0B93FCCF386957795679567
:1010C000B395D9F73EF490958095709561957F4FD3
:1010D0008F4F9F4F0895E89409C097FB3EF4909579
:1010E0008095709561957F4F8F4F9F4F9923A9F001
:1010F000F92F96E9BB279395F69587957795679590
:10110000B795F111F8CFFAF4BB0F11F460FF1BC0D3
:101110006F5F7F4F8F4F9F4F16C0882311F096E966
:1011200011C0772321F09EE8872F762F05C0662314
:1011300071F096E8862F70E060E02AF09A95660FCD
:10114000771F881FDAF7880F9695879597F9089586
:10115000990F0008550FAA0BE0E8FEEF16161706C8
:10116000E807F907C0F012161306E407F50798F030
:10117000621B730B840B950B39F40A2661F0232B49
:10118000242B252B21F408950A2609F4A140A695C5
:101190008FEF811D811D089597F99F6780E870E0AA
:1011A00060E008959FEF80EC089500240A941616DD
:1011B000170618060906089500240A941216130645
:1011C000140605060895092E0394000C11F48823D3
:1011D00052F0BB0F40F4BF2B11F460FF04C06F5FEF
:1011E0007F4F8F4F9F4F089557FD9058440F551FC5
:1011F00059F05F3F71F04795880F97FB991F61F099
:101200009F3F79F087950895121613061406551F0F
:10121000F2CF4695F1DF08C0161617061806991F7B
:10122000F1CF86957105610508940895E894BB2770
:1012300066277727CB0197F908950E94A80808F43C
:101240008FEF08950E9435090C94E3080E94D50899
:1012500038F00E94DC0820F0952311F00C94CC08A3
:101260000C94D20811240C9417090E94F40870F30E
:10127000959FC1F3950F50E0551F629FF001729F3B
:10128000BB27F00DB11D639FAA27F00DB11DAA1F4A
:10129000649F6627B00DA11D661F829F2227B00D97
:1012A000A11D621F739FB00DA11D621F839FA00D22
:1012B000611D221F749F3327A00D611D231F849F72
:1012C000600D211D822F762F6A2F11249F575040C9
:1012D0009AF0F1F088234AF0EE0FFF1FBB1F661F44
:1012E000771F881F91505040A9F79E3F510580F00D
:1012F0000C94CC080C9417095F3FE4F3983ED4F3A8
:10130000869577956795B795F795E7959F5FC1F7B0
:10131000FE2B880F911D9695879597F908950E9449
:10132000A808880B990B089597FB072E16F40094D4
:1013300007D077FD09D00E94CA0907FC05D03EF40A
:10134000909581959F4F0895709561957F4F089571
:10135000A1E21A2EAA1BBB1BFD010DC0AA1FBB1FB9
:10136000EE1FFF1FA217B307E407F50720F0A21B2B
:10137000B30BE40BF50B661F771F881F991F1A9498
:1013800069F760957095809590959B01AC01BD01C2
:10139000CF010895AA1BBB1B51E107C0AA1FBB1FA9
:1013A000A617B70710F0A61BB70B881F991F5A95F1
:1013B000A9F780959095BC01CD010895EE0FFF1F10
:0C13C0000590F491E02D0994F894FFCF03
:1013CC0010343034100000000017027701A40164BF
:1013DC0002D501B301C70100000000F10377015CE5
:1013EC00035B035620313A20006E616E00696E6615
:0613FC00006F76660000A0
:00000001FF
