:1000000014C01BC01AC019C018C017C016C015C034
:1000100014C013C012C011C010C00FC00EC00DC05C
:100020000CC00BC00AC009C008C011241FBECFE518
:10003000D1E0DEBFCDBF02D05EC0E2CF87B38F6715
:1000400087BB88B3807888BBC09A2FE986E891E0A7
:10005000215080409040E1F700C00000C098C19A54
:100060002FE986E891E0215080409040E1F700C000
:100070000000C198C29A2FE986E891E021508040A3
:100080009040E1F700C00000C298C39A2FE986E8CB
:1000900091E0215080409040E1F700C00000C398FB
:1000A000C49A2FE986E891E0215080409040E1F722
:1000B00000C00000C498C59A2FE986E891E021505D
:1000C00080409040E1F700C00000C598C69A2FE933
:1000D00086E891E0215080409040E1F700C00000A8
:1000E000C6982FE986E891E0215080409040E1F7E2
:0A00F00000C00000A9CFF894FFCF74
:00000001FF
