:1000000014C01BC01AC019C018C017C016C015C034
:1000100014C013C012C011C010C00FC00EC00DC05C
:100020000CC00BC00AC009C008C011241FBECFE518
:10003000D1E0DEBFCDBF02D032C0E2CF87B3887F30
:1000400087BB87B3886387BBB0990BC0C39A2FE483
:100050008DE299E1215080409040E1F700C000001E
:1000600001C0C398B1990BC0C49A2FE48DE299E105
:10007000215080409040E1F700C0000001C0C498CA
:10008000B2990BC0C59A2FE48DE299E121508040CE
:100090009040E1F700C00000D7CFC598D5CFF894C5
:0200A000FFCF90
:00000001FF
