:100000001EC02EC057C02BC02AC029C028C027C080
:1000100026C025C024C023C022C021C020C01FC0CC
:100020001EC01DC01CC01BC01AC0A0C0A1C0A2C061
:10003000A3C0A4C0A5C0A6C0A7C0A8C0A9C01124C1
:100040001FBECFE5D1E0DEBFCDBF20E0A0E6B0E02F
:1000500001C01D92AC36B207E1F752D04BC1D0CFF0
:100060001F920F920FB60F9211242F933F938F93ED
:100070009F9380916400811114C081E0809364009B
:1000800027E834E892E0215030409040E1F700C08A
:10009000000010926B0010926A0010926900809329
:1000A00066009F918F913F912F910F900FBE0F90FF
:1000B0001F9018951F920F920FB60F9211242F9335
:1000C0003F938F939F9380916400811110C081E0D2
:1000D0008093640027E834E892E02150304090405B
:1000E000E1F700C0000010926700809365009F91C7
:1000F0008F913F912F910F900FBE0F901F901895E9
:100100009FEF97BB11BA82B38C6082BB9ABB81B35D
:10011000836081BB8BB7806C8BBF85B78A6085BFDE
:1001200078944FE65FE767E07DE7CDE6D6E61FE42B
:100130000BE586E0F82E3FE321E080916400882300
:10014000E1F3E0916B0080916A00F0916900909179
:1001500068008E2B8F2BE82FE92B8E2F90E08A30B2
:100160009105B8F4FC01EB5EFF4F099438BB11C058
:10017000F8BA0FC008BB0DC018BB0BC0D8BB09C074
:10018000C8BB07C078BB05C068BB03C058BB01C073
:1001900048BB80916600882309F489C080916B0078
:1001A000843088F48091620081110DC080916100DB
:1001B000811109C080916B008F5F80936B00D89A8A
:1001C0001092620023C0209362001092610010928E
:1001D0006B00D89880916A008A30D8F490916200C0
:1001E0009130B9F480916100811113C08091690050
:1001F00081110FC08091680081110BC080916A004D
:100200008F5F80936A00D99A909362001092610088
:1002100067C0D998109262002093610080916900B4
:100220008730E8F480916200811119C090916100DB
:100230009130A9F480916000811111C08091680013
:1002400081110DC0809169008F5F80936900919A40
:10025000909361001092620010926A0041C0D99898
:100260002093620020936100209360009198809118
:1002700068008A30C8F4809162008130A9F48091CE
:100280006100813089F480916000813069F490913F
:1002900068009F5F90936800909A809362008093BB
:1002A0006100109269001CC038BB909817C0809103
:1002B0006500882391F080916700873040F4809139
:1002C00067008F5F80936700D99A919A09C038BB05
:1002D00010926700D998919801C038BB10926400C1
:1002E0008FE99AE5E2E381509040E040E1F700C0F9
:0802F000000023CFF894FFCFBA
:00000001FF
