:100000000C944D010C9475010C9475010C947501C0
:100010000C9475010C9475010C9475010C94750188
:100020000C9475010C9475010C9475010C94750178
:100030000C9475010C9475010C9475010C94750168
:100040000C942F030C9475010C9475010C9475019C
:100050000C9475010C9475010C9475010C94750148
:100060000C9475010C947501000000000000005F05
:1000700000000007000700147F147F14242A7F2A41
:10008000122313086462364955225000050300000C
:10009000001C2241000041221C0014083E081408E4
:1000A000083E0808005030000008080808080060F2
:1000B00060000020100804023E5149453E00427F86
:1000C000400042615149462141454B311814127F8D
:1000D0001027454545393C4A494930017109050316
:1000E0003649494936064949291E0036360000007E
:1000F0005636000008142241001414141414004150
:100100002214080201510906324979413E7E11113B
:10011000117E7F494949363E414141227F4141227A
:100120001C7F494949417F090909013E4149497AF2
:100130007F0808087F00417F41002040413F017F48
:10014000081422417F404040407F020C027F7F0420
:1001500008107F3E4141413E7F090909063E415159
:10016000215E7F09192946464949493101017F012C
:10017000013F4040403F1F2040201F3F4038403F4C
:100180006314081463070870080761514945430068
:100190007F41410002040810200041417F00040219
:1001A0000102044040404040000102040020545439
:1001B00054787F48444438384444442038444448C0
:1001C0007F3854545418087E0901020C5252523E92
:1001D0007F0804047800447D40002040443D007FB7
:1001E0001028440000417F40007C041804787C08FB
:1001F00004047838444444387C1414140808141453
:10020000187C7C080404084854545420043F44409B
:10021000203C4040207C1C2040201C3C4030403C86
:1002200044281028440C5050503C4464544C440022
:100230000836410000007F00000041360800100829
:100240000810080000000000000000080002010083
:100250000003040700000000000000000000000090
:10026000250028002B0000000000240027002A00A1
:10027000040404040404040402020202020203034C
:100280000303030301020408102040800102040854
:100290001020010204081020F60411241FBECFEF25
:1002A000D8E0DEBFCDBF11E0A0E0B1E0E8ECFAE0BD
:1002B00002C005900D92A032B107D9F721E0A0E26B
:1002C000B1E001C01D92A937B207E1F711E0CDE41A
:1002D000D1E004C02197FE010E945C05CC34D10717
:1002E000C9F70E9479030C9462050C94000090E019
:1002F000FC01EC57FD4F249180599D4FFC018491E6
:10030000882399F090E0880F991FFC01EA59FD4F6E
:10031000A591B491FC01E45AFD4F859194918FB75A
:10032000F894EC91E22BEC938FBF089590E0FC01E0
:10033000E85BFD4F2491FC01EC57FD4F3491FC012B
:10034000E059FD4FE491EE23C9F0222339F0233028
:1003500001F1A8F4213019F1223029F1F0E0EE0F7B
:10036000FF1FE45AFD4FA591B4918FB7F894EC911B
:10037000611126C030953E233C938FBF08952730EE
:10038000A9F02830C9F0243049F7809180008F7D92
:1003900003C0809180008F7780938000DFCF84B589
:1003A0008F7784BDDBCF84B58F7DFBCF8091B0008C
:1003B0008F778093B000D2CF8091B0008F7DF9CF3E
:1003C0003E2BDACF3FB7F894809127019091280116
:1003D000A0912901B0912A0126B5A89B05C02F3F05
:1003E00019F00196A11DB11D3FBFBA2FA92F982F5B
:1003F0008827BC01CD01620F711D811D911D42E056
:10040000660F771F881F991F4A95D1F708958F921D
:100410009F92AF92BF92CF92DF92EF92FF924B01E9
:100420005C010E94E2016B017C010E94E2016C19F7
:100430007D098E099F09683E734081059105A8F3E7
:1004400021E0821A9108A108B10888EEC80E83E065
:10045000D81EE11CF11C81149104A104B10429F7F8
:10046000FF90EF90DF90CF90BF90AF909F908F90D4
:100470000895AF92BF92CF92DF92EF92FF920F93C7
:100480001F93CF93DF936C017B018B01040F151F2A
:10049000EB015E01AE18BF08C017D10759F0699192
:1004A000D601ED91FC910190F081E02DC6010995F6
:1004B000892B79F7C501DF91CF911F910F91FF90A3
:1004C000EF90DF90CF90BF90AF900895089590E0A7
:1004D00080E00895EF92FF920F931F93CF93DF93E5
:1004E000EC01042F8E810E94960160E088850E94B5
:1004F0009601FC80ED8018E0602F661F6627661F5E
:100500008E2D0E949601000F61E08F2D0E949601B2
:1005100060E08F2D0E949601115071F761E088858F
:10052000DF91CF911F910F91FF90EF900C94960166
:10053000CF93DF93CBE2D1E01C8690E06B8529E37B
:10054000629F612D1124669570E06F5F7F4F0E945E
:1005500012058D8740E860E0CE010E946A024D8559
:10056000406460E0CE01DF91CF910C946A02CF929B
:10057000DF92EF92FF920F931F93CF93DF9300D000
:1005800000D01F92CDB7DEB767FD66C07C01862F15
:1005900090E0603208F44FC0809725E0289FB001BA
:1005A000299F700D112468597F4F45E050E0CE011E
:1005B00001960E9409058E010F5F1F4F680185E0BB
:1005C000C80ED11CF80141918F0161E0C7010E9462
:1005D0006A020C151D05B1F740E061E0C7010E94F9
:1005E0006A02F701848590E00696628570E00E94B9
:1005F00012058487892B79F4858590E001966385BF
:1006000029E3629F612D1124669570E06F5F7F4F33
:100610000E941205858781E090E00F900F900F9067
:100620000F900F90DF91CF911F910F91FF90EF905E
:10063000DF90CF900895FC013796EE0FFF1FEE0D6F
:10064000FF1D008111810115110509F0B7CF45E0AB
:1006500050E068E670E0ABCF90E080E0DECF1F9224
:100660000F920FB60F9211242F933F938F939F9366
:10067000AF93BF938091230190912401A091250114
:10068000B09126013091220123E0230F2D3758F538
:100690000196A11DB11D2093220180932301909307
:1006A0002401A0932501B093260180912701909108
:1006B0002801A0912901B0912A010196A11DB11D27
:1006C0008093270190932801A0932901B0932A01D8
:1006D000BF91AF919F918F913F912F910F900FBE3E
:1006E0000F901F90189526E8230F0296A11DB11DAB
:1006F000D2CFCF93DF93CDB7DEB7A1970FB6F894E3
:10070000DEBF0FBECDBF789484B5826084BD84B552
:10071000816084BD85B5826085BD85B5816085BDFC
:1007200080916E00816080936E00109281008091B4
:10073000810082608093810080918100816080933C
:100740008100809180008160809380008091B10061
:1007500084608093B1008091B00081608093B0008C
:1007600080917A00846080937A0080917A00826020
:1007700080937A0080917A00816080937A008091E2
:100780007A00806880937A001092C10084E580939B
:10079000350180E3809336011092340110923701C5
:1007A00010923801E9E3F1E080E4DF011D928A95BF
:1007B000E9F780912F010E947701809130010E941A
:1007C0007701809131010E947701809132010E946E
:1007D0007701809133010E94770161E080913201BD
:1007E0000E94960161E0809133010E94960160E0D1
:1007F000809132010E94960164E670E080E090E012
:100800000E94070261E0809132010E94960141E25C
:1008100060E08BE291E00E946A0243E160E08BE2DB
:1008200091E00E946A028091340142EC813039F4F7
:1008300040EE60E08BE291E00E946A0245E060E0F9
:100840008BE291E00E946A0240E260E08BE291E07C
:100850000E946A0249E060E08BE291E00E946A0235
:1008600080E00E94980210E000E0809136018695B9
:100870008695869590913501899FC00111240817AE
:10088000190748F440E061E08BE291E00E946A02BF
:100890000F5F1F4FEACF80E00E94980248E060E0BF
:1008A0008BE291E00E946A024CE060E08BE291E012
:1008B0000E946A0264E670E080E090E00E94070215
:1008C00040E860E08BE291E00E946A0240E460E070
:1008D0008BE291E00E946A028CE091E090933A01F1
:1008E000809339018AE0882E912CA12CB12C00E054
:1008F00010E080E00E9498024DE050E061E171E07C
:100900008BE291E00E94390281E00E949802C0903F
:100910002001D09021010D2C000CEE08FF08F7FEFD
:100920004FC06DE28BE291E00E94B702222733278D
:10093000A9012C193D094E095F0919A2FE01B196C2
:100940007F01CA01B901A50194010E942605605DDD
:10095000D7016E937D01211531054105510589F7B8
:10096000E114F10469F0F70101900020E9F73197F3
:10097000AF014E195F09B7018BE291E00E94390285
:1009800060E28BE291E00E94B70260E08BE291E0CE
:100990000E94B70268EC70E080E090E00E940702DD
:1009A00080912001909121010196909321018093E3
:1009B00020010115110509F49CCF0E94000099CF78
:1009C000A701960119A2FE01B1967F01CA01B901E2
:1009D000A50194010E942605605DD7016E937D01FB
:1009E000211531054105510589F7BACFEBE2F1E058
:1009F0001382128284E091E09183808383E0848378
:100A000084E0858385E0868386E0878387E080872E
:100A10000895FB01DC0102C005900D924150504049
:100A2000D8F7089597FB072E16F4009407D077FDAA
:100A300009D00E94480507FC05D03EF490958195A9
:100A40009F4F0895709561957F4F0895A1E21A2EEA
:100A5000AA1BBB1BFD010DC0AA1FBB1FEE1FFF1F62
:100A6000A217B307E407F50720F0A21BB30BE40BB2
:100A7000F50B661F771F881F991F1A9469F76095F9
:100A80007095809590959B01AC01BD01CF010895B3
:100A9000AA1BBB1B51E107C0AA1FBB1FA617B707A4
:100AA00010F0A61BB70B881F991F5A95A9F78095C0
:100AB0009095BC01CD010895EE0FFF1F0590F491B4
:080AC000E02D0994F894FFCF2A
:100AC80000000000B70239026702660210343034B1
:100AD8001048656C6C6F2C20576F726C6421000095
:00000001FF
