:100000001EC02EC048C02BC02AC029C028C027C08F
:1000100026C025C024C023C022C071C020C01FC07C
:100020001EC01DC01CC01BC04DC0C0C0C1C0C2C0CE
:10003000C3C0C4C0C5C0C6C0C7C0C8C0C9C01124E1
:100040001FBECFE5D1E0DEBFCDBF20E0A0E6B0E02F
:1000500001C01D92AD36B207E1F762D064C2D0CFC5
:100060001F920F920FB60F9211248F93809164000C
:1000700081110BC081E08093640010926B0010929C
:100080006A0010926900809367008F910F900FBEF5
:100090000F901F9018951F920F920FB60F92112478
:1000A0008F9380916400811107C081E08093640088
:1000B00010926A00809366008F910F900FBE0F9090
:1000C0001F9018951F920F920FB60F9211248F93C5
:1000D0008091640081110DC081E0809364001092D2
:1000E0006B0010926A001092690080936500809303
:1000F00060008F910F900FBE0F901F9018951F9268
:100100000F920FB60F9211248F9380916C008F5F26
:1001100080936C008F910F900FBE0F901F901895D9
:100120009FEF97BB11BA82B38C6482BB9ABB81B339
:10013000836081BB8BB7806D8BBF85B78A6085BFBD
:100140002E9A80E886BD81E086BD10BE83B78560AB
:1001500083BF8EE486BF89B7816089BF7894AFE69C
:10016000BFE7C7E0DDE71DE606E68FE4F82E9BE576
:10017000E92E26E0D22E2FE381E0909164009923AE
:10018000E1F3E0916B0040916A0030916900909139
:1001900068004E2B432BE42FE92B4E2F50E04A30C2
:1001A0005105B8F4FA01EB5EFF4F099428BB11C06A
:1001B000D8BA0FC0E8BA0DC0F8BA0BC008BB09C066
:1001C00018BB07C0D8BB05C0C8BB03C0B8BB01C0C3
:1001D000A8BB90916C009E3480F2909167009923A7
:1001E00009F465C090916B00933048F490916300DE
:1001F000911105C090916200992309F469C0809320
:1002000063001092620010926B00D89890916A007F
:100210009A3088F430916300313069F49091620033
:10022000911109C090916900911105C090916800E9
:10023000992309F471C0D9981092630080936200E9
:1002400010926A0090916900953088F49091630053
:1002500091110DC030916200313049F490916100EC
:10026000911105C090916800992309F479C010920A
:100270006900D99880936300809362008093610045
:10028000919890916800993068F490916300913052
:1002900049F490916200913029F49091610091307D
:1002A00009F419C1109268001092670089C09091FA
:1002B0006600992309F487C090916B00923088F40E
:1002C0009091630091110DC090916200911109C04D
:1002D00090916B009F5F90936B00D89A109263008F
:1002E00023C0809363001092620010926B00D89834
:1002F00090916A009730D8F4309163003130B9F4AE
:1003000090916200911113C09091690091110FC0FA
:100310009091680091110BC090916A009F5F90933B
:100320006A00D99A3093630010926200F9C0D9989C
:100330001092630080936200909169009430E8F419
:1003400090916300911119C0309162003130A9F48D
:1003500090916100911111C09091680091110DC0B0
:10036000909169009F5F90936900919A3093620029
:100370001092630010926A00D3C0D99880936300F2
:10038000809362008093610091989091680096300C
:1003900068F490916300913049F49091620091303B
:1003A00029F490916100913009F495C01092660093
:1003B00010926B0010926A0010926900109268000F
:1003C00028BB9098A1C090916500992309F4A5C01D
:1003D00090916000913009F0A0C090916B00911154
:1003E00011C09091630091110DC090916200911124
:1003F00009C090916B009F5F90936B00D89A109208
:10040000630023C0809363001092620010926B001F
:10041000D89890916A009330D8F4309163003130CD
:10042000B9F490916200911113C0909169009111FB
:100430000FC09091680091110BC090916A009F5F6E
:1004400090936A00D99A309363001092620027C09B
:10045000D998109263008093620010926A00909184
:1004600069009230F0F49091630091111AC03091BC
:1004700062003130B1F490916100911112C09091FD
:10048000680091110EC0909169009F5F9093690080
:10049000919A309362001092630010926A00C79A9A
:1004A0003FC010926900D9988093630080936200E6
:1004B000809361009198909168009330C8F4909176
:1004C00063009130A9F490916200913089F4909189
:1004D0006100913069F4309168003F5F30936800AB
:1004E000909A90936300909362001092690018C0F4
:1004F00028BB909810926B0010926A0010926900CD
:1005000010926800109265001092640010926300CF
:10051000109262001092610003C028BB1092640028
:0A05200010926C002ACEF894FFCF71
:00000001FF
